{
  "_format": "hh-sol-artifact-1",
  "contractName": "NFTCollectible",
  "sourceName": "contracts/NFTCollectible.sol",
  "abi": [
    {
      "inputs": [],
      "stateMutability": "nonpayable",
      "type": "constructor"
    },
    {
      "anonymous": false,
      "inputs": [
        {
          "indexed": true,
          "internalType": "address",
          "name": "owner",
          "type": "address"
        },
        {
          "indexed": true,
          "internalType": "address",
          "name": "approved",
          "type": "address"
        },
        {
          "indexed": true,
          "internalType": "uint256",
          "name": "tokenId",
          "type": "uint256"
        }
      ],
      "name": "Approval",
      "type": "event"
    },
    {
      "anonymous": false,
      "inputs": [
        {
          "indexed": true,
          "internalType": "address",
          "name": "owner",
          "type": "address"
        },
        {
          "indexed": true,
          "internalType": "address",
          "name": "operator",
          "type": "address"
        },
        {
          "indexed": false,
          "internalType": "bool",
          "name": "approved",
          "type": "bool"
        }
      ],
      "name": "ApprovalForAll",
      "type": "event"
    },
    {
      "anonymous": false,
      "inputs": [
        {
          "indexed": true,
          "internalType": "address",
          "name": "newMarketplace",
          "type": "address"
        }
      ],
      "name": "MarketplaceUpdated",
      "type": "event"
    },
    {
      "anonymous": false,
      "inputs": [
        {
          "indexed": true,
          "internalType": "address",
          "name": "minter",
          "type": "address"
        },
        {
          "indexed": false,
          "internalType": "uint256",
          "name": "tokenId",
          "type": "uint256"
        },
        {
          "indexed": false,
          "internalType": "string",
          "name": "tokenURI",
          "type": "string"
        }
      ],
      "name": "Minted",
      "type": "event"
    },
    {
      "anonymous": false,
      "inputs": [
        {
          "indexed": true,
          "internalType": "address",
          "name": "previousOwner",
          "type": "address"
        },
        {
          "indexed": true,
          "internalType": "address",
          "name": "newOwner",
          "type": "address"
        }
      ],
      "name": "OwnershipTransferred",
      "type": "event"
    },
    {
      "anonymous": false,
      "inputs": [
        {
          "indexed": true,
          "internalType": "address",
          "name": "from",
          "type": "address"
        },
        {
          "indexed": true,
          "internalType": "address",
          "name": "to",
          "type": "address"
        },
        {
          "indexed": true,
          "internalType": "uint256",
          "name": "tokenId",
          "type": "uint256"
        }
      ],
      "name": "Transfer",
      "type": "event"
    },
    {
      "inputs": [],
      "name": "ROYALTY_BPS",
      "outputs": [
        {
          "internalType": "uint256",
          "name": "",
          "type": "uint256"
        }
      ],
      "stateMutability": "view",
      "type": "function"
    },
    {
      "inputs": [
        {
          "internalType": "address",
          "name": "to",
          "type": "address"
        },
        {
          "internalType": "uint256",
          "name": "tokenId",
          "type": "uint256"
        }
      ],
      "name": "approve",
      "outputs": [],
      "stateMutability": "nonpayable",
      "type": "function"
    },
    {
      "inputs": [
        {
          "internalType": "address",
          "name": "owner",
          "type": "address"
        }
      ],
      "name": "balanceOf",
      "outputs": [
        {
          "internalType": "uint256",
          "name": "",
          "type": "uint256"
        }
      ],
      "stateMutability": "view",
      "type": "function"
    },
    {
      "inputs": [
        {
          "internalType": "uint256",
          "name": "tokenId",
          "type": "uint256"
        }
      ],
      "name": "getApproved",
      "outputs": [
        {
          "internalType": "address",
          "name": "",
          "type": "address"
        }
      ],
      "stateMutability": "view",
      "type": "function"
    },
    {
      "inputs": [
        {
          "internalType": "address",
          "name": "owner",
          "type": "address"
        },
        {
          "internalType": "address",
          "name": "operator",
          "type": "address"
        }
      ],
      "name": "isApprovedForAll",
      "outputs": [
        {
          "internalType": "bool",
          "name": "",
          "type": "bool"
        }
      ],
      "stateMutability": "view",
      "type": "function"
    },
    {
      "inputs": [],
      "name": "marketplaceAddress",
      "outputs": [
        {
          "internalType": "address",
          "name": "",
          "type": "address"
        }
      ],
      "stateMutability": "view",
      "type": "function"
    },
    {
      "inputs": [
        {
          "internalType": "string",
          "name": "uri",
          "type": "string"
        }
      ],
      "name": "mint",
      "outputs": [
        {
          "internalType": "uint256",
          "name": "",
          "type": "uint256"
        }
      ],
      "stateMutability": "nonpayable",
      "type": "function"
    },
    {
      "inputs": [],
      "name": "name",
      "outputs": [
        {
          "internalType": "string",
          "name": "",
          "type": "string"
        }
      ],
      "stateMutability": "view",
      "type": "function"
    },
    {
      "inputs": [],
      "name": "owner",
      "outputs": [
        {
          "internalType": "address",
          "name": "",
          "type": "address"
        }
      ],
      "stateMutability": "view",
      "type": "function"
    },
    {
      "inputs": [
        {
          "internalType": "uint256",
          "name": "tokenId",
          "type": "uint256"
        }
      ],
      "name": "ownerOf",
      "outputs": [
        {
          "internalType": "address",
          "name": "",
          "type": "address"
        }
      ],
      "stateMutability": "view",
      "type": "function"
    },
    {
      "inputs": [],
      "name": "renounceOwnership",
      "outputs": [],
      "stateMutability": "nonpayable",
      "type": "function"
    },
    {
      "inputs": [
        {
          "internalType": "uint256",
          "name": "",
          "type": "uint256"
        },
        {
          "internalType": "uint256",
          "name": "salePrice",
          "type": "uint256"
        }
      ],
      "name": "royaltyInfo",
      "outputs": [
        {
          "internalType": "address",
          "name": "receiver",
          "type": "address"
        },
        {
          "internalType": "uint256",
          "name": "royaltyAmount",
          "type": "uint256"
        }
      ],
      "stateMutability": "view",
      "type": "function"
    },
    {
      "inputs": [
        {
          "internalType": "address",
          "name": "from",
          "type": "address"
        },
        {
          "internalType": "address",
          "name": "to",
          "type": "address"
        },
        {
          "internalType": "uint256",
          "name": "tokenId",
          "type": "uint256"
        }
      ],
      "name": "safeTransferFrom",
      "outputs": [],
      "stateMutability": "nonpayable",
      "type": "function"
    },
    {
      "inputs": [
        {
          "internalType": "address",
          "name": "from",
          "type": "address"
        },
        {
          "internalType": "address",
          "name": "to",
          "type": "address"
        },
        {
          "internalType": "uint256",
          "name": "tokenId",
          "type": "uint256"
        },
        {
          "internalType": "bytes",
          "name": "_data",
          "type": "bytes"
        }
      ],
      "name": "safeTransferFrom",
      "outputs": [],
      "stateMutability": "nonpayable",
      "type": "function"
    },
    {
      "inputs": [
        {
          "internalType": "address",
          "name": "operator",
          "type": "address"
        },
        {
          "internalType": "bool",
          "name": "approved",
          "type": "bool"
        }
      ],
      "name": "setApprovalForAll",
      "outputs": [],
      "stateMutability": "nonpayable",
      "type": "function"
    },
    {
      "inputs": [
        {
          "internalType": "address",
          "name": "_marketplace",
          "type": "address"
        }
      ],
      "name": "setMarketplaceAddress",
      "outputs": [],
      "stateMutability": "nonpayable",
      "type": "function"
    },
    {
      "inputs": [
        {
          "internalType": "bytes4",
          "name": "interfaceId",
          "type": "bytes4"
        }
      ],
      "name": "supportsInterface",
      "outputs": [
        {
          "internalType": "bool",
          "name": "",
          "type": "bool"
        }
      ],
      "stateMutability": "view",
      "type": "function"
    },
    {
      "inputs": [],
      "name": "symbol",
      "outputs": [
        {
          "internalType": "string",
          "name": "",
          "type": "string"
        }
      ],
      "stateMutability": "view",
      "type": "function"
    },
    {
      "inputs": [
        {
          "internalType": "uint256",
          "name": "tokenId",
          "type": "uint256"
        }
      ],
      "name": "tokenURI",
      "outputs": [
        {
          "internalType": "string",
          "name": "",
          "type": "string"
        }
      ],
      "stateMutability": "view",
      "type": "function"
    },
    {
      "inputs": [],
      "name": "totalSupply",
      "outputs": [
        {
          "internalType": "uint256",
          "name": "",
          "type": "uint256"
        }
      ],
      "stateMutability": "view",
      "type": "function"
    },
    {
      "inputs": [
        {
          "internalType": "address",
          "name": "from",
          "type": "address"
        },
        {
          "internalType": "address",
          "name": "to",
          "type": "address"
        },
        {
          "internalType": "uint256",
          "name": "tokenId",
          "type": "uint256"
        }
      ],
      "name": "transferFrom",
      "outputs": [],
      "stateMutability": "nonpayable",
      "type": "function"
    },
    {
      "inputs": [
        {
          "internalType": "address",
          "name": "newOwner",
          "type": "address"
        }
      ],
      "name": "transferOwnership",
      "outputs": [],
      "stateMutability": "nonpayable",
      "type": "function"
    }
  ],
  "bytecode": "0x60806040523480156200001157600080fd5b506040518060400160405280600e81526020017f4e4654436f6c6c65637469626c650000000000000000000000000000000000008152506040518060400160405280600481526020017f4e4654430000000000000000000000000000000000000000000000000000000081525081600090816200008f919062000412565b508060019081620000a1919062000412565b505050620000c4620000b8620000ca60201b60201c565b620000d260201b60201c565b620004f9565b600033905090565b6000600760009054906101000a900473ffffffffffffffffffffffffffffffffffffffff16905081600760006101000a81548173ffffffffffffffffffffffffffffffffffffffff021916908373ffffffffffffffffffffffffffffffffffffffff1602179055508173ffffffffffffffffffffffffffffffffffffffff168173ffffffffffffffffffffffffffffffffffffffff167f8be0079c531659141344cd1fd0a4f28419497f9722a3daafe3b4186f6b6457e060405160405180910390a35050565b600081519050919050565b7f4e487b7100000000000000000000000000000000000000000000000000000000600052604160045260246000fd5b7f4e487b7100000000000000000000000000000000000000000000000000000000600052602260045260246000fd5b600060028204905060018216806200021a57607f821691505b60208210810362000230576200022f620001d2565b5b50919050565b60008190508160005260206000209050919050565b60006020601f8301049050919050565b600082821b905092915050565b6000600883026200029a7fffffffffffffffffffffffffffffffffffffffffffffffffffffffffffffffff826200025b565b620002a686836200025b565b95508019841693508086168417925050509392505050565b6000819050919050565b6000819050919050565b6000620002f3620002ed620002e784620002be565b620002c8565b620002be565b9050919050565b6000819050919050565b6200030f83620002d2565b620003276200031e82620002fa565b84845462000268565b825550505050565b600090565b6200033e6200032f565b6200034b81848462000304565b505050565b5b8181101562000373576200036760008262000334565b60018101905062000351565b5050565b601f821115620003c2576200038c8162000236565b62000397846200024b565b81016020851015620003a7578190505b620003bf620003b6856200024b565b83018262000350565b50505b505050565b600082821c905092915050565b6000620003e760001984600802620003c7565b1980831691505092915050565b6000620004028383620003d4565b9150826002028217905092915050565b6200041d8262000198565b67ffffffffffffffff811115620004395762000438620001a3565b5b62000445825462000201565b6200045282828562000377565b600060209050601f8311600181146200048a576000841562000475578287015190505b620004818582620003f4565b865550620004f1565b601f1984166200049a8662000236565b60005b82811015620004c4578489015182556001820191506020850194506020810190506200049d565b86831015620004e45784890151620004e0601f891682620003d4565b8355505b6001600288020188555050505b505050505050565b6135fd80620005096000396000f3fe608060405234801561001057600080fd5b50600436106101425760003560e01c8063715018a6116100b8578063b88d4fde1161007c578063b88d4fde14610364578063c87b56dd14610380578063d85d3d27146103b0578063daa17f49146103e0578063e985e9c5146103fe578063f2fde38b1461042e57610142565b8063715018a6146102e65780638da5cb5b146102f057806395d89b411461030e578063a22cb4651461032c578063b47cc5561461034857610142565b806323b872dd1161010a57806323b872dd146101ff5780632a55205a1461021b57806342842e0e1461024c57806349c657db146102685780636352211e1461028657806370a08231146102b657610142565b806301ffc9a71461014757806306fdde0314610177578063081812fc14610195578063095ea7b3146101c557806318160ddd146101e1575b600080fd5b610161600480360381019061015c9190611f48565b61044a565b60405161016e9190611f90565b60405180910390f35b61017f6104c4565b60405161018c919061203b565b60405180910390f35b6101af60048036038101906101aa9190612093565b610556565b6040516101bc9190612101565b60405180910390f35b6101df60048036038101906101da9190612148565b6105db565b005b6101e96106f2565b6040516101f69190612197565b60405180910390f35b610219600480360381019061021491906121b2565b610703565b005b61023560048036038101906102309190612205565b610763565b604051610243929190612245565b60405180910390f35b610266600480360381019061026191906121b2565b610794565b005b6102706107b4565b60405161027d9190612197565b60405180910390f35b6102a0600480360381019061029b9190612093565b6107ba565b6040516102ad9190612101565b60405180910390f35b6102d060048036038101906102cb919061226e565b61086b565b6040516102dd9190612197565b60405180910390f35b6102ee610922565b005b6102f86109aa565b6040516103059190612101565b60405180910390f35b6103166109d4565b604051610323919061203b565b60405180910390f35b610346600480360381019061034191906122c7565b610a66565b005b610362600480360381019061035d919061226e565b610a7c565b005b61037e6004803603810190610379919061243c565b610b7f565b005b61039a60048036038101906103959190612093565b610be1565b6040516103a7919061203b565b60405180910390f35b6103ca60048036038101906103c59190612560565b610d32565b6040516103d79190612197565b60405180910390f35b6103e8610db8565b6040516103f59190612101565b60405180910390f35b610418600480360381019061041391906125a9565b610dde565b6040516104259190611f90565b60405180910390f35b6104486004803603810190610443919061226e565b610e51565b005b60007f2a55205a000000000000000000000000000000000000000000000000000000007bffffffffffffffffffffffffffffffffffffffffffffffffffffffff1916827bffffffffffffffffffffffffffffffffffffffffffffffffffffffff191614806104bd57506104bc82610f48565b5b9050919050565b6060600080546104d390612618565b80601f01602080910402602001604051908101604052809291908181526020018280546104ff90612618565b801561054c5780601f106105215761010080835404028352916020019161054c565b820191906000526020600020905b81548152906001019060200180831161052f57829003601f168201915b5050505050905090565b60006105618261102a565b6105a0576040517f08c379a0000000000000000000000000000000000000000000000000000000008152600401610597906126bb565b60405180910390fd5b6004600083815260200190815260200160002060009054906101000a900473ffffffffffffffffffffffffffffffffffffffff169050919050565b60006105e6826107ba565b90508073ffffffffffffffffffffffffffffffffffffffff168373ffffffffffffffffffffffffffffffffffffffff1603610656576040517f08c379a000000000000000000000000000000000000000000000000000000000815260040161064d9061274d565b60405180910390fd5b8073ffffffffffffffffffffffffffffffffffffffff16610675611096565b73ffffffffffffffffffffffffffffffffffffffff1614806106a457506106a38161069e611096565b610dde565b5b6106e3576040517f08c379a00000000000000000000000000000000000000000000000000000000081526004016106da906127df565b60405180910390fd5b6106ed838361109e565b505050565b60006106fe6008611157565b905090565b61071461070e611096565b82611165565b610753576040517f08c379a000000000000000000000000000000000000000000000000000000000815260040161074a90612871565b60405180910390fd5b61075e838383611243565b505050565b60008061076e6109aa565b6127106101f48561077f91906128c0565b6107899190612931565b915091509250929050565b6107af83838360405180602001604052806000815250610b7f565b505050565b6101f481565b6000806002600084815260200190815260200160002060009054906101000a900473ffffffffffffffffffffffffffffffffffffffff169050600073ffffffffffffffffffffffffffffffffffffffff168173ffffffffffffffffffffffffffffffffffffffff1603610862576040517f08c379a0000000000000000000000000000000000000000000000000000000008152600401610859906129d4565b60405180910390fd5b80915050919050565b60008073ffffffffffffffffffffffffffffffffffffffff168273ffffffffffffffffffffffffffffffffffffffff16036108db576040517f08c379a00000000000000000000000000000000000000000000000000000000081526004016108d290612a66565b60405180910390fd5b600360008373ffffffffffffffffffffffffffffffffffffffff1673ffffffffffffffffffffffffffffffffffffffff168152602001908152602001600020549050919050565b61092a611096565b73ffffffffffffffffffffffffffffffffffffffff166109486109aa565b73ffffffffffffffffffffffffffffffffffffffff161461099e576040517f08c379a000000000000000000000000000000000000000000000000000000000815260040161099590612ad2565b60405180910390fd5b6109a860006114a9565b565b6000600760009054906101000a900473ffffffffffffffffffffffffffffffffffffffff16905090565b6060600180546109e390612618565b80601f0160208091040260200160405190810160405280929190818152602001828054610a0f90612618565b8015610a5c5780601f10610a3157610100808354040283529160200191610a5c565b820191906000526020600020905b815481529060010190602001808311610a3f57829003601f168201915b5050505050905090565b610a78610a71611096565b838361156f565b5050565b610a84611096565b73ffffffffffffffffffffffffffffffffffffffff16610aa26109aa565b73ffffffffffffffffffffffffffffffffffffffff1614610af8576040517f08c379a0000000000000000000000000000000000000000000000000000000008152600401610aef90612ad2565b60405180910390fd5b80600960006101000a81548173ffffffffffffffffffffffffffffffffffffffff021916908373ffffffffffffffffffffffffffffffffffffffff1602179055508073ffffffffffffffffffffffffffffffffffffffff167f210690abd7fd6cdbb8f2beb202b2a253d58d7a0813b2175c4172c14c0c1af6dc60405160405180910390a250565b610b90610b8a611096565b83611165565b610bcf576040517f08c379a0000000000000000000000000000000000000000000000000000000008152600401610bc690612871565b60405180910390fd5b610bdb848484846116db565b50505050565b6060610bec8261102a565b610c2b576040517f08c379a0000000000000000000000000000000000000000000000000000000008152600401610c2290612b64565b60405180910390fd5b6000600660008481526020019081526020016000208054610c4b90612618565b80601f0160208091040260200160405190810160405280929190818152602001828054610c7790612618565b8015610cc45780601f10610c9957610100808354040283529160200191610cc4565b820191906000526020600020905b815481529060010190602001808311610ca757829003601f168201915b505050505090506000610cd5611737565b90506000815103610cea578192505050610d2d565b600082511115610d1f578082604051602001610d07929190612bc0565b60405160208183030381529060405292505050610d2d565b610d288461174e565b925050505b919050565b600080610d3f6008611157565b9050610d4b60086117f5565b610d55338261180b565b610d5f8184611829565b3373ffffffffffffffffffffffffffffffffffffffff167fe7cd4ce7f2a465edc730269a1305e8a48bad821e8fb7e152ec413829c01a53c48285604051610da7929190612be4565b60405180910390a280915050919050565b600960009054906101000a900473ffffffffffffffffffffffffffffffffffffffff1681565b6000600960009054906101000a900473ffffffffffffffffffffffffffffffffffffffff1673ffffffffffffffffffffffffffffffffffffffff168273ffffffffffffffffffffffffffffffffffffffff1603610e3e5760019050610e4b565b610e488383611896565b90505b92915050565b610e59611096565b73ffffffffffffffffffffffffffffffffffffffff16610e776109aa565b73ffffffffffffffffffffffffffffffffffffffff1614610ecd576040517f08c379a0000000000000000000000000000000000000000000000000000000008152600401610ec490612ad2565b60405180910390fd5b600073ffffffffffffffffffffffffffffffffffffffff168173ffffffffffffffffffffffffffffffffffffffff1603610f3c576040517f08c379a0000000000000000000000000000000000000000000000000000000008152600401610f3390612c86565b60405180910390fd5b610f45816114a9565b50565b60007f80ac58cd000000000000000000000000000000000000000000000000000000007bffffffffffffffffffffffffffffffffffffffffffffffffffffffff1916827bffffffffffffffffffffffffffffffffffffffffffffffffffffffff1916148061101357507f5b5e139f000000000000000000000000000000000000000000000000000000007bffffffffffffffffffffffffffffffffffffffffffffffffffffffff1916827bffffffffffffffffffffffffffffffffffffffffffffffffffffffff1916145b8061102357506110228261192a565b5b9050919050565b60008073ffffffffffffffffffffffffffffffffffffffff166002600084815260200190815260200160002060009054906101000a900473ffffffffffffffffffffffffffffffffffffffff1673ffffffffffffffffffffffffffffffffffffffff1614159050919050565b600033905090565b816004600083815260200190815260200160002060006101000a81548173ffffffffffffffffffffffffffffffffffffffff021916908373ffffffffffffffffffffffffffffffffffffffff160217905550808273ffffffffffffffffffffffffffffffffffffffff16611111836107ba565b73ffffffffffffffffffffffffffffffffffffffff167f8c5be1e5ebec7d5bd14f71427d1e84f3dd0314c0f7b2291e5b200ac8c7c3b92560405160405180910390a45050565b600081600001549050919050565b60006111708261102a565b6111af576040517f08c379a00000000000000000000000000000000000000000000000000000000081526004016111a690612d18565b60405180910390fd5b60006111ba836107ba565b90508073ffffffffffffffffffffffffffffffffffffffff168473ffffffffffffffffffffffffffffffffffffffff16148061122957508373ffffffffffffffffffffffffffffffffffffffff1661121184610556565b73ffffffffffffffffffffffffffffffffffffffff16145b8061123a57506112398185610dde565b5b91505092915050565b8273ffffffffffffffffffffffffffffffffffffffff16611263826107ba565b73ffffffffffffffffffffffffffffffffffffffff16146112b9576040517f08c379a00000000000000000000000000000000000000000000000000000000081526004016112b090612daa565b60405180910390fd5b600073ffffffffffffffffffffffffffffffffffffffff168273ffffffffffffffffffffffffffffffffffffffff1603611328576040517f08c379a000000000000000000000000000000000000000000000000000000000815260040161131f90612e3c565b60405180910390fd5b611333838383611994565b61133e60008261109e565b6001600360008573ffffffffffffffffffffffffffffffffffffffff1673ffffffffffffffffffffffffffffffffffffffff168152602001908152602001600020600082825461138e9190612e5c565b925050819055506001600360008473ffffffffffffffffffffffffffffffffffffffff1673ffffffffffffffffffffffffffffffffffffffff16815260200190815260200160002060008282546113e59190612e90565b92505081905550816002600083815260200190815260200160002060006101000a81548173ffffffffffffffffffffffffffffffffffffffff021916908373ffffffffffffffffffffffffffffffffffffffff160217905550808273ffffffffffffffffffffffffffffffffffffffff168473ffffffffffffffffffffffffffffffffffffffff167fddf252ad1be2c89b69c2b068fc378daa952ba7f163c4a11628f55a4df523b3ef60405160405180910390a46114a4838383611999565b505050565b6000600760009054906101000a900473ffffffffffffffffffffffffffffffffffffffff16905081600760006101000a81548173ffffffffffffffffffffffffffffffffffffffff021916908373ffffffffffffffffffffffffffffffffffffffff1602179055508173ffffffffffffffffffffffffffffffffffffffff168173ffffffffffffffffffffffffffffffffffffffff167f8be0079c531659141344cd1fd0a4f28419497f9722a3daafe3b4186f6b6457e060405160405180910390a35050565b8173ffffffffffffffffffffffffffffffffffffffff168373ffffffffffffffffffffffffffffffffffffffff16036115dd576040517f08c379a00000000000000000000000000000000000000000000000000000000081526004016115d490612f10565b60405180910390fd5b80600560008573ffffffffffffffffffffffffffffffffffffffff1673ffffffffffffffffffffffffffffffffffffffff16815260200190815260200160002060008473ffffffffffffffffffffffffffffffffffffffff1673ffffffffffffffffffffffffffffffffffffffff16815260200190815260200160002060006101000a81548160ff0219169083151502179055508173ffffffffffffffffffffffffffffffffffffffff168373ffffffffffffffffffffffffffffffffffffffff167f17307eab39ab6107e8899845ad3d59bd9653f200f220920489ca2b5937696c31836040516116ce9190611f90565b60405180910390a3505050565b6116e6848484611243565b6116f28484848461199e565b611731576040517f08c379a000000000000000000000000000000000000000000000000000000000815260040161172890612fa2565b60405180910390fd5b50505050565b606060405180602001604052806000815250905090565b60606117598261102a565b611798576040517f08c379a000000000000000000000000000000000000000000000000000000000815260040161178f90613034565b60405180910390fd5b60006117a2611737565b905060008151116117c257604051806020016040528060008152506117ed565b806117cc84611b25565b6040516020016117dd929190612bc0565b6040516020818303038152906040525b915050919050565b6001816000016000828254019250508190555050565b611825828260405180602001604052806000815250611c85565b5050565b6118328261102a565b611871576040517f08c379a0000000000000000000000000000000000000000000000000000000008152600401611868906130c6565b60405180910390fd5b806006600084815260200190815260200160002090816118919190613292565b505050565b6000600560008473ffffffffffffffffffffffffffffffffffffffff1673ffffffffffffffffffffffffffffffffffffffff16815260200190815260200160002060008373ffffffffffffffffffffffffffffffffffffffff1673ffffffffffffffffffffffffffffffffffffffff16815260200190815260200160002060009054906101000a900460ff16905092915050565b60007f01ffc9a7000000000000000000000000000000000000000000000000000000007bffffffffffffffffffffffffffffffffffffffffffffffffffffffff1916827bffffffffffffffffffffffffffffffffffffffffffffffffffffffff1916149050919050565b505050565b505050565b60006119bf8473ffffffffffffffffffffffffffffffffffffffff16611ce0565b15611b18578373ffffffffffffffffffffffffffffffffffffffff1663150b7a026119e8611096565b8786866040518563ffffffff1660e01b8152600401611a0a94939291906133b9565b6020604051808303816000875af1925050508015611a4657506040513d601f19601f82011682018060405250810190611a43919061341a565b60015b611ac8573d8060008114611a76576040519150601f19603f3d011682016040523d82523d6000602084013e611a7b565b606091505b506000815103611ac0576040517f08c379a0000000000000000000000000000000000000000000000000000000008152600401611ab790612fa2565b60405180910390fd5b805181602001fd5b63150b7a0260e01b7bffffffffffffffffffffffffffffffffffffffffffffffffffffffff1916817bffffffffffffffffffffffffffffffffffffffffffffffffffffffff191614915050611b1d565b600190505b949350505050565b606060008203611b6c576040518060400160405280600181526020017f30000000000000000000000000000000000000000000000000000000000000008152509050611c80565b600082905060005b60008214611b9e578080611b8790613447565b915050600a82611b979190612931565b9150611b74565b60008167ffffffffffffffff811115611bba57611bb9612311565b5b6040519080825280601f01601f191660200182016040528015611bec5781602001600182028036833780820191505090505b5090505b60008514611c7957600182611c059190612e5c565b9150600a85611c14919061348f565b6030611c209190612e90565b60f81b818381518110611c3657611c356134c0565b5b60200101907effffffffffffffffffffffffffffffffffffffffffffffffffffffffffffff1916908160001a905350600a85611c729190612931565b9450611bf0565b8093505050505b919050565b611c8f8383611d03565b611c9c600084848461199e565b611cdb576040517f08c379a0000000000000000000000000000000000000000000000000000000008152600401611cd290612fa2565b60405180910390fd5b505050565b6000808273ffffffffffffffffffffffffffffffffffffffff163b119050919050565b600073ffffffffffffffffffffffffffffffffffffffff168273ffffffffffffffffffffffffffffffffffffffff1603611d72576040517f08c379a0000000000000000000000000000000000000000000000000000000008152600401611d699061353b565b60405180910390fd5b611d7b8161102a565b15611dbb576040517f08c379a0000000000000000000000000000000000000000000000000000000008152600401611db2906135a7565b60405180910390fd5b611dc760008383611994565b6001600360008473ffffffffffffffffffffffffffffffffffffffff1673ffffffffffffffffffffffffffffffffffffffff1681526020019081526020016000206000828254611e179190612e90565b92505081905550816002600083815260200190815260200160002060006101000a81548173ffffffffffffffffffffffffffffffffffffffff021916908373ffffffffffffffffffffffffffffffffffffffff160217905550808273ffffffffffffffffffffffffffffffffffffffff16600073ffffffffffffffffffffffffffffffffffffffff167fddf252ad1be2c89b69c2b068fc378daa952ba7f163c4a11628f55a4df523b3ef60405160405180910390a4611ed860008383611999565b5050565b6000604051905090565b600080fd5b600080fd5b60007fffffffff0000000000000000000000000000000000000000000000000000000082169050919050565b611f2581611ef0565b8114611f3057600080fd5b50565b600081359050611f4281611f1c565b92915050565b600060208284031215611f5e57611f5d611ee6565b5b6000611f6c84828501611f33565b91505092915050565b60008115159050919050565b611f8a81611f75565b82525050565b6000602082019050611fa56000830184611f81565b92915050565b600081519050919050565b600082825260208201905092915050565b60005b83811015611fe5578082015181840152602081019050611fca565b60008484015250505050565b6000601f19601f8301169050919050565b600061200d82611fab565b6120178185611fb6565b9350612027818560208601611fc7565b61203081611ff1565b840191505092915050565b600060208201905081810360008301526120558184612002565b905092915050565b6000819050919050565b6120708161205d565b811461207b57600080fd5b50565b60008135905061208d81612067565b92915050565b6000602082840312156120a9576120a8611ee6565b5b60006120b78482850161207e565b91505092915050565b600073ffffffffffffffffffffffffffffffffffffffff82169050919050565b60006120eb826120c0565b9050919050565b6120fb816120e0565b82525050565b600060208201905061211660008301846120f2565b92915050565b612125816120e0565b811461213057600080fd5b50565b6000813590506121428161211c565b92915050565b6000806040838503121561215f5761215e611ee6565b5b600061216d85828601612133565b925050602061217e8582860161207e565b9150509250929050565b6121918161205d565b82525050565b60006020820190506121ac6000830184612188565b92915050565b6000806000606084860312156121cb576121ca611ee6565b5b60006121d986828701612133565b93505060206121ea86828701612133565b92505060406121fb8682870161207e565b9150509250925092565b6000806040838503121561221c5761221b611ee6565b5b600061222a8582860161207e565b925050602061223b8582860161207e565b9150509250929050565b600060408201905061225a60008301856120f2565b6122676020830184612188565b9392505050565b60006020828403121561228457612283611ee6565b5b600061229284828501612133565b91505092915050565b6122a481611f75565b81146122af57600080fd5b50565b6000813590506122c18161229b565b92915050565b600080604083850312156122de576122dd611ee6565b5b60006122ec85828601612133565b92505060206122fd858286016122b2565b9150509250929050565b600080fd5b600080fd5b7f4e487b7100000000000000000000000000000000000000000000000000000000600052604160045260246000fd5b61234982611ff1565b810181811067ffffffffffffffff8211171561236857612367612311565b5b80604052505050565b600061237b611edc565b90506123878282612340565b919050565b600067ffffffffffffffff8211156123a7576123a6612311565b5b6123b082611ff1565b9050602081019050919050565b82818337600083830152505050565b60006123df6123da8461238c565b612371565b9050828152602081018484840111156123fb576123fa61230c565b5b6124068482856123bd565b509392505050565b600082601f83011261242357612422612307565b5b81356124338482602086016123cc565b91505092915050565b6000806000806080858703121561245657612455611ee6565b5b600061246487828801612133565b945050602061247587828801612133565b93505060406124868782880161207e565b925050606085013567ffffffffffffffff8111156124a7576124a6611eeb565b5b6124b38782880161240e565b91505092959194509250565b600067ffffffffffffffff8211156124da576124d9612311565b5b6124e382611ff1565b9050602081019050919050565b60006125036124fe846124bf565b612371565b90508281526020810184848401111561251f5761251e61230c565b5b61252a8482856123bd565b509392505050565b600082601f83011261254757612546612307565b5b81356125578482602086016124f0565b91505092915050565b60006020828403121561257657612575611ee6565b5b600082013567ffffffffffffffff81111561259457612593611eeb565b5b6125a084828501612532565b91505092915050565b600080604083850312156125c0576125bf611ee6565b5b60006125ce85828601612133565b92505060206125df85828601612133565b9150509250929050565b7f4e487b7100000000000000000000000000000000000000000000000000000000600052602260045260246000fd5b6000600282049050600182168061263057607f821691505b602082108103612643576126426125e9565b5b50919050565b7f4552433732313a20617070726f76656420717565727920666f72206e6f6e657860008201527f697374656e7420746f6b656e0000000000000000000000000000000000000000602082015250565b60006126a5602c83611fb6565b91506126b082612649565b604082019050919050565b600060208201905081810360008301526126d481612698565b9050919050565b7f4552433732313a20617070726f76616c20746f2063757272656e74206f776e6560008201527f7200000000000000000000000000000000000000000000000000000000000000602082015250565b6000612737602183611fb6565b9150612742826126db565b604082019050919050565b600060208201905081810360008301526127668161272a565b9050919050565b7f4552433732313a20617070726f76652063616c6c6572206973206e6f74206f7760008201527f6e6572206e6f7220617070726f76656420666f7220616c6c0000000000000000602082015250565b60006127c9603883611fb6565b91506127d48261276d565b604082019050919050565b600060208201905081810360008301526127f8816127bc565b9050919050565b7f4552433732313a207472616e736665722063616c6c6572206973206e6f74206f60008201527f776e6572206e6f7220617070726f766564000000000000000000000000000000602082015250565b600061285b603183611fb6565b9150612866826127ff565b604082019050919050565b6000602082019050818103600083015261288a8161284e565b9050919050565b7f4e487b7100000000000000000000000000000000000000000000000000000000600052601160045260246000fd5b60006128cb8261205d565b91506128d68361205d565b92508282026128e48161205d565b915082820484148315176128fb576128fa612891565b5b5092915050565b7f4e487b7100000000000000000000000000000000000000000000000000000000600052601260045260246000fd5b600061293c8261205d565b91506129478361205d565b92508261295757612956612902565b5b828204905092915050565b7f4552433732313a206f776e657220717565727920666f72206e6f6e657869737460008201527f656e7420746f6b656e0000000000000000000000000000000000000000000000602082015250565b60006129be602983611fb6565b91506129c982612962565b604082019050919050565b600060208201905081810360008301526129ed816129b1565b9050919050565b7f4552433732313a2062616c616e636520717565727920666f7220746865207a6560008201527f726f206164647265737300000000000000000000000000000000000000000000602082015250565b6000612a50602a83611fb6565b9150612a5b826129f4565b604082019050919050565b60006020820190508181036000830152612a7f81612a43565b9050919050565b7f4f776e61626c653a2063616c6c6572206973206e6f7420746865206f776e6572600082015250565b6000612abc602083611fb6565b9150612ac782612a86565b602082019050919050565b60006020820190508181036000830152612aeb81612aaf565b9050919050565b7f45524337323155524953746f726167653a2055524920717565727920666f722060008201527f6e6f6e6578697374656e7420746f6b656e000000000000000000000000000000602082015250565b6000612b4e603183611fb6565b9150612b5982612af2565b604082019050919050565b60006020820190508181036000830152612b7d81612b41565b9050919050565b600081905092915050565b6000612b9a82611fab565b612ba48185612b84565b9350612bb4818560208601611fc7565b80840191505092915050565b6000612bcc8285612b8f565b9150612bd88284612b8f565b91508190509392505050565b6000604082019050612bf96000830185612188565b8181036020830152612c0b8184612002565b90509392505050565b7f4f776e61626c653a206e6577206f776e657220697320746865207a65726f206160008201527f6464726573730000000000000000000000000000000000000000000000000000602082015250565b6000612c70602683611fb6565b9150612c7b82612c14565b604082019050919050565b60006020820190508181036000830152612c9f81612c63565b9050919050565b7f4552433732313a206f70657261746f7220717565727920666f72206e6f6e657860008201527f697374656e7420746f6b656e0000000000000000000000000000000000000000602082015250565b6000612d02602c83611fb6565b9150612d0d82612ca6565b604082019050919050565b60006020820190508181036000830152612d3181612cf5565b9050919050565b7f4552433732313a207472616e736665722066726f6d20696e636f72726563742060008201527f6f776e6572000000000000000000000000000000000000000000000000000000602082015250565b6000612d94602583611fb6565b9150612d9f82612d38565b604082019050919050565b60006020820190508181036000830152612dc381612d87565b9050919050565b7f4552433732313a207472616e7366657220746f20746865207a65726f2061646460008201527f7265737300000000000000000000000000000000000000000000000000000000602082015250565b6000612e26602483611fb6565b9150612e3182612dca565b604082019050919050565b60006020820190508181036000830152612e5581612e19565b9050919050565b6000612e678261205d565b9150612e728361205d565b9250828203905081811115612e8a57612e89612891565b5b92915050565b6000612e9b8261205d565b9150612ea68361205d565b9250828201905080821115612ebe57612ebd612891565b5b92915050565b7f4552433732313a20617070726f766520746f2063616c6c657200000000000000600082015250565b6000612efa601983611fb6565b9150612f0582612ec4565b602082019050919050565b60006020820190508181036000830152612f2981612eed565b9050919050565b7f4552433732313a207472616e7366657220746f206e6f6e20455243373231526560008201527f63656976657220696d706c656d656e7465720000000000000000000000000000602082015250565b6000612f8c603283611fb6565b9150612f9782612f30565b604082019050919050565b60006020820190508181036000830152612fbb81612f7f565b9050919050565b7f4552433732314d657461646174613a2055524920717565727920666f72206e6f60008201527f6e6578697374656e7420746f6b656e0000000000000000000000000000000000602082015250565b600061301e602f83611fb6565b915061302982612fc2565b604082019050919050565b6000602082019050818103600083015261304d81613011565b9050919050565b7f45524337323155524953746f726167653a2055524920736574206f66206e6f6e60008201527f6578697374656e7420746f6b656e000000000000000000000000000000000000602082015250565b60006130b0602e83611fb6565b91506130bb82613054565b604082019050919050565b600060208201905081810360008301526130df816130a3565b9050919050565b60008190508160005260206000209050919050565b60006020601f8301049050919050565b600082821b905092915050565b6000600883026131487fffffffffffffffffffffffffffffffffffffffffffffffffffffffffffffffff8261310b565b613152868361310b565b95508019841693508086168417925050509392505050565b6000819050919050565b600061318f61318a6131858461205d565b61316a565b61205d565b9050919050565b6000819050919050565b6131a983613174565b6131bd6131b582613196565b848454613118565b825550505050565b600090565b6131d26131c5565b6131dd8184846131a0565b505050565b5b81811015613201576131f66000826131ca565b6001810190506131e3565b5050565b601f82111561324657613217816130e6565b613220846130fb565b8101602085101561322f578190505b61324361323b856130fb565b8301826131e2565b50505b505050565b600082821c905092915050565b60006132696000198460080261324b565b1980831691505092915050565b60006132828383613258565b9150826002028217905092915050565b61329b82611fab565b67ffffffffffffffff8111156132b4576132b3612311565b5b6132be8254612618565b6132c9828285613205565b600060209050601f8311600181146132fc57600084156132ea578287015190505b6132f48582613276565b86555061335c565b601f19841661330a866130e6565b60005b828110156133325784890151825560018201915060208501945060208101905061330d565b8683101561334f578489015161334b601f891682613258565b8355505b6001600288020188555050505b505050505050565b600081519050919050565b600082825260208201905092915050565b600061338b82613364565b613395818561336f565b93506133a5818560208601611fc7565b6133ae81611ff1565b840191505092915050565b60006080820190506133ce60008301876120f2565b6133db60208301866120f2565b6133e86040830185612188565b81810360608301526133fa8184613380565b905095945050505050565b60008151905061341481611f1c565b92915050565b6000602082840312156134305761342f611ee6565b5b600061343e84828501613405565b91505092915050565b60006134528261205d565b91507fffffffffffffffffffffffffffffffffffffffffffffffffffffffffffffffff820361348457613483612891565b5b600182019050919050565b600061349a8261205d565b91506134a58361205d565b9250826134b5576134b4612902565b5b828206905092915050565b7f4e487b7100000000000000000000000000000000000000000000000000000000600052603260045260246000fd5b7f4552433732313a206d696e7420746f20746865207a65726f2061646472657373600082015250565b6000613525602083611fb6565b9150613530826134ef565b602082019050919050565b6000602082019050818103600083015261355481613518565b9050919050565b7f4552433732313a20746f6b656e20616c7265616479206d696e74656400000000600082015250565b6000613591601c83611fb6565b915061359c8261355b565b602082019050919050565b600060208201905081810360008301526135c081613584565b905091905056fea2646970667358221220559a8069c684c6e86cb8915a84d3e29142c60cd5a53cfdc12a2f82be5dacf8e664736f6c63430008180033",
  "linkReferences": {},
  "deployedLinkReferences": {}
}